{
  "_format": "hh-sol-artifact-1",
  "contractName": "Transactions",
  "sourceName": "contracts/Transactions.sol",
  "abi": [
    {
      "anonymous": false,
      "inputs": [
        {
          "indexed": false,
          "internalType": "address",
          "name": "from",
          "type": "address"
        },
        {
          "indexed": false,
          "internalType": "address",
          "name": "receiver",
          "type": "address"
        },
        {
          "indexed": false,
          "internalType": "string",
          "name": "nftName",
          "type": "string"
        },
        {
          "indexed": false,
          "internalType": "string",
          "name": "urlImage",
          "type": "string"
        },
        {
          "indexed": false,
          "internalType": "uint256",
          "name": "amount",
          "type": "uint256"
        },
        {
          "indexed": false,
          "internalType": "uint256",
          "name": "timeStamp",
          "type": "uint256"
        },
        {
          "indexed": false,
          "internalType": "string",
          "name": "keyword",
          "type": "string"
        }
      ],
      "name": "Transfer",
      "type": "event"
    },
    {
      "inputs": [
        {
          "internalType": "address payable",
          "name": "receiver",
          "type": "address"
        },
        {
          "internalType": "uint256",
          "name": "amount",
          "type": "uint256"
        },
        {
          "internalType": "string",
          "name": "nftName",
          "type": "string"
        },
        {
          "internalType": "string",
          "name": "urlImage",
          "type": "string"
        },
        {
          "internalType": "string",
          "name": "keyword",
          "type": "string"
        }
      ],
      "name": "addToBlockchain",
      "outputs": [],
      "stateMutability": "nonpayable",
      "type": "function"
    },
    {
      "inputs": [],
      "name": "getAllTransactions",
      "outputs": [
        {
          "components": [
            {
              "internalType": "address",
              "name": "sender",
              "type": "address"
            },
            {
              "internalType": "address",
              "name": "receiver",
              "type": "address"
            },
            {
              "internalType": "string",
              "name": "nftName",
              "type": "string"
            },
            {
              "internalType": "string",
              "name": "urlImage",
              "type": "string"
            },
            {
              "internalType": "uint256",
              "name": "amount",
              "type": "uint256"
            },
            {
              "internalType": "uint256",
              "name": "timeStamp",
              "type": "uint256"
            },
            {
              "internalType": "string",
              "name": "keyword",
              "type": "string"
            }
          ],
          "internalType": "struct Transactions.TransferStruct[]",
          "name": "",
          "type": "tuple[]"
        }
      ],
      "stateMutability": "view",
      "type": "function"
    },
    {
      "inputs": [],
      "name": "getTransactionCount",
      "outputs": [
        {
          "internalType": "uint256",
          "name": "",
          "type": "uint256"
        }
      ],
      "stateMutability": "view",
      "type": "function"
    }
  ],
  "bytecode": "0x608060405234801561001057600080fd5b50611031806100206000396000f3fe608060405234801561001057600080fd5b50600436106100415760003560e01c806327506f53146100465780632e7700f014610064578063be9863a314610082575b600080fd5b61004e61009e565b60405161005b9190610b93565b60405180910390f35b61006c610373565b6040516100799190610c35565b60405180910390f35b61009c600480360381019061009791906107d4565b61037c565b005b60606001805480602002602001604051908101604052809291908181526020016000905b8282101561036a57838290600052602060002090600702016040518060e00160405290816000820160009054906101000a900473ffffffffffffffffffffffffffffffffffffffff1673ffffffffffffffffffffffffffffffffffffffff1673ffffffffffffffffffffffffffffffffffffffff1681526020016001820160009054906101000a900473ffffffffffffffffffffffffffffffffffffffff1673ffffffffffffffffffffffffffffffffffffffff1673ffffffffffffffffffffffffffffffffffffffff1681526020016002820180546101a190610e28565b80601f01602080910402602001604051908101604052809291908181526020018280546101cd90610e28565b801561021a5780601f106101ef5761010080835404028352916020019161021a565b820191906000526020600020905b8154815290600101906020018083116101fd57829003601f168201915b5050505050815260200160038201805461023390610e28565b80601f016020809104026020016040519081016040528092919081815260200182805461025f90610e28565b80156102ac5780601f10610281576101008083540402835291602001916102ac565b820191906000526020600020905b81548152906001019060200180831161028f57829003601f168201915b5050505050815260200160048201548152602001600582015481526020016006820180546102d990610e28565b80601f016020809104026020016040519081016040528092919081815260200182805461030590610e28565b80156103525780601f1061032757610100808354040283529160200191610352565b820191906000526020600020905b81548152906001019060200180831161033557829003601f168201915b505050505081525050815260200190600101906100c2565b50505050905090565b60008054905090565b600073ffffffffffffffffffffffffffffffffffffffff168573ffffffffffffffffffffffffffffffffffffffff1614156103ec576040517f08c379a00000000000000000000000000000000000000000000000000000000081526004016103e390610bd5565b60405180910390fd5b6000841161042f576040517f08c379a000000000000000000000000000000000000000000000000000000000815260040161042690610bb5565b60405180910390fd5b6000835111610473576040517f08c379a000000000000000000000000000000000000000000000000000000000815260040161046a90610bf5565b60405180910390fd5b60008251116104b7576040517f08c379a00000000000000000000000000000000000000000000000000000000081526004016104ae90610c15565b60405180910390fd5b60016000808282546104c99190610d0c565b9250508190555060016040518060e001604052803373ffffffffffffffffffffffffffffffffffffffff1681526020018773ffffffffffffffffffffffffffffffffffffffff16815260200185815260200184815260200186815260200142815260200183815250908060018154018082558091505060019003906000526020600020906007020160009091909190915060008201518160000160006101000a81548173ffffffffffffffffffffffffffffffffffffffff021916908373ffffffffffffffffffffffffffffffffffffffff16021790555060208201518160010160006101000a81548173ffffffffffffffffffffffffffffffffffffffff021916908373ffffffffffffffffffffffffffffffffffffffff160217905550604082015181600201908051906020019061060492919061069f565b50606082015181600301908051906020019061062192919061069f565b506080820151816004015560a0820151816005015560c082015181600601908051906020019061065292919061069f565b5050507fcc57d9c77840baa7c9cfaf4602ed0cbe6854bd235fc53b432a4718a3d88dad59338685858842876040516106909796959493929190610b0f565b60405180910390a15050505050565b8280546106ab90610e28565b90600052602060002090601f0160209004810192826106cd5760008555610714565b82601f106106e657805160ff1916838001178555610714565b82800160010185558215610714579182015b828111156107135782518255916020019190600101906106f8565b5b5090506107219190610725565b5090565b5b8082111561073e576000816000905550600101610726565b5090565b600061075561075084610c75565b610c50565b90508281526020810184848401111561076d57600080fd5b610778848285610de6565b509392505050565b60008135905061078f81610fcd565b92915050565b600082601f8301126107a657600080fd5b81356107b6848260208601610742565b91505092915050565b6000813590506107ce81610fe4565b92915050565b600080600080600060a086880312156107ec57600080fd5b60006107fa88828901610780565b955050602061080b888289016107bf565b945050604086013567ffffffffffffffff81111561082857600080fd5b61083488828901610795565b935050606086013567ffffffffffffffff81111561085157600080fd5b61085d88828901610795565b925050608086013567ffffffffffffffff81111561087a57600080fd5b61088688828901610795565b9150509295509295909350565b600061089f8383610a47565b905092915050565b6108b081610db0565b82525050565b6108bf81610d62565b82525050565b6108ce81610d62565b82525050565b60006108df82610cb6565b6108e98185610cd9565b9350836020820285016108fb85610ca6565b8060005b8581101561093757848403895281516109188582610893565b945061092383610ccc565b925060208a019950506001810190506108ff565b50829750879550505050505092915050565b600061095482610cc1565b61095e8185610cea565b935061096e818560208601610df5565b61097781610f18565b840191505092915050565b600061098d82610cc1565b6109978185610cfb565b93506109a7818560208601610df5565b6109b081610f18565b840191505092915050565b60006109c8602083610cfb565b91506109d382610f29565b602082019050919050565b60006109eb601f83610cfb565b91506109f682610f52565b602082019050919050565b6000610a0e601883610cfb565b9150610a1982610f7b565b602082019050919050565b6000610a31601983610cfb565b9150610a3c82610fa4565b602082019050919050565b600060e083016000830151610a5f60008601826108b6565b506020830151610a7260208601826108b6565b5060408301518482036040860152610a8a8282610949565b91505060608301518482036060860152610aa48282610949565b9150506080830151610ab96080860182610af1565b5060a0830151610acc60a0860182610af1565b5060c083015184820360c0860152610ae48282610949565b9150508091505092915050565b610afa81610da6565b82525050565b610b0981610da6565b82525050565b600060e082019050610b24600083018a6108c5565b610b3160208301896108a7565b8181036040830152610b438188610982565b90508181036060830152610b578187610982565b9050610b666080830186610b00565b610b7360a0830185610b00565b81810360c0830152610b858184610982565b905098975050505050505050565b60006020820190508181036000830152610bad81846108d4565b905092915050565b60006020820190508181036000830152610bce816109bb565b9050919050565b60006020820190508181036000830152610bee816109de565b9050919050565b60006020820190508181036000830152610c0e81610a01565b9050919050565b60006020820190508181036000830152610c2e81610a24565b9050919050565b6000602082019050610c4a6000830184610b00565b92915050565b6000610c5a610c6b565b9050610c668282610e5a565b919050565b6000604051905090565b600067ffffffffffffffff821115610c9057610c8f610ee9565b5b610c9982610f18565b9050602081019050919050565b6000819050602082019050919050565b600081519050919050565b600081519050919050565b6000602082019050919050565b600082825260208201905092915050565b600082825260208201905092915050565b600082825260208201905092915050565b6000610d1782610da6565b9150610d2283610da6565b9250827fffffffffffffffffffffffffffffffffffffffffffffffffffffffffffffffff03821115610d5757610d56610e8b565b5b828201905092915050565b6000610d6d82610d86565b9050919050565b6000610d7f82610d86565b9050919050565b600073ffffffffffffffffffffffffffffffffffffffff82169050919050565b6000819050919050565b6000610dbb82610dc2565b9050919050565b6000610dcd82610dd4565b9050919050565b6000610ddf82610d86565b9050919050565b82818337600083830152505050565b60005b83811015610e13578082015181840152602081019050610df8565b83811115610e22576000848401525b50505050565b60006002820490506001821680610e4057607f821691505b60208210811415610e5457610e53610eba565b5b50919050565b610e6382610f18565b810181811067ffffffffffffffff82111715610e8257610e81610ee9565b5b80604052505050565b7f4e487b7100000000000000000000000000000000000000000000000000000000600052601160045260246000fd5b7f4e487b7100000000000000000000000000000000000000000000000000000000600052602260045260246000fd5b7f4e487b7100000000000000000000000000000000000000000000000000000000600052604160045260246000fd5b6000601f19601f8301169050919050565b7f416d6f756e74206d7573742062652067726561746572207468616e207a65726f600082015250565b7f526563656976657220616464726573732063616e6e6f74206265207a65726f00600082015250565b7f4e4654206e616d652063616e6e6f7420626520656d7074790000000000000000600082015250565b7f496d6167652055524c2063616e6e6f7420626520656d70747900000000000000600082015250565b610fd681610d74565b8114610fe157600080fd5b50565b610fed81610da6565b8114610ff857600080fd5b5056fea2646970667358221220d44ce47fbcd51fa8b1a9d81df948db05cae542789c32a8f286c13ac1cdc102ac64736f6c63430008040033",
  "linkReferences": {},
  "deployedLinkReferences": {}
}